{
  "_format": "hh-sol-artifact-1",
  "contractName": "MediFlowIntegrity",
  "sourceName": "contracts/MediFlowIntegrity.sol",
  "abi": [
    {
      "inputs": [],
      "stateMutability": "nonpayable",
      "type": "constructor"
    },
    {
      "inputs": [],
      "name": "AlreadyRegistered",
      "type": "error"
    },
    {
      "inputs": [],
      "name": "ConsentNotActive",
      "type": "error"
    },
    {
      "inputs": [],
      "name": "NotOwner",
      "type": "error"
    },
    {
      "inputs": [],
      "name": "UnknownConsent",
      "type": "error"
    },
    {
      "inputs": [],
      "name": "ZeroValue",
      "type": "error"
    },
    {
      "anonymous": false,
      "inputs": [
        {
          "indexed": true,
          "internalType": "bytes32",
          "name": "periodRef",
          "type": "bytes32"
        },
        {
          "indexed": true,
          "internalType": "bytes32",
          "name": "merkleRoot",
          "type": "bytes32"
        },
        {
          "indexed": false,
          "internalType": "uint64",
          "name": "anchoredAt",
          "type": "uint64"
        }
      ],
      "name": "AuditRootAnchored",
      "type": "event"
    },
    {
      "anonymous": false,
      "inputs": [
        {
          "indexed": true,
          "internalType": "bytes32",
          "name": "consentRef",
          "type": "bytes32"
        },
        {
          "indexed": true,
          "internalType": "bytes32",
          "name": "patientRef",
          "type": "bytes32"
        },
        {
          "indexed": true,
          "internalType": "bytes32",
          "name": "granteeRef",
          "type": "bytes32"
        },
        {
          "indexed": false,
          "internalType": "bytes32",
          "name": "scopeHash",
          "type": "bytes32"
        },
        {
          "indexed": false,
          "internalType": "bytes32",
          "name": "periodRef",
          "type": "bytes32"
        },
        {
          "indexed": false,
          "internalType": "uint64",
          "name": "grantedAt",
          "type": "uint64"
        }
      ],
      "name": "ConsentGranted",
      "type": "event"
    },
    {
      "anonymous": false,
      "inputs": [
        {
          "indexed": true,
          "internalType": "bytes32",
          "name": "consentRef",
          "type": "bytes32"
        },
        {
          "indexed": true,
          "internalType": "bytes32",
          "name": "revocationHash",
          "type": "bytes32"
        },
        {
          "indexed": false,
          "internalType": "uint64",
          "name": "revokedAt",
          "type": "uint64"
        }
      ],
      "name": "ConsentRevoked",
      "type": "event"
    },
    {
      "anonymous": false,
      "inputs": [
        {
          "indexed": true,
          "internalType": "bytes32",
          "name": "recordRef",
          "type": "bytes32"
        },
        {
          "indexed": true,
          "internalType": "bytes32",
          "name": "contentHash",
          "type": "bytes32"
        },
        {
          "indexed": false,
          "internalType": "uint64",
          "name": "registeredAt",
          "type": "uint64"
        }
      ],
      "name": "RecordRegistered",
      "type": "event"
    },
    {
      "inputs": [
        {
          "internalType": "bytes32",
          "name": "periodRef",
          "type": "bytes32"
        },
        {
          "internalType": "bytes32",
          "name": "merkleRoot",
          "type": "bytes32"
        }
      ],
      "name": "anchorAuditRoot",
      "outputs": [],
      "stateMutability": "nonpayable",
      "type": "function"
    },
    {
      "inputs": [
        {
          "internalType": "bytes32",
          "name": "periodRef",
          "type": "bytes32"
        }
      ],
      "name": "getAuditAnchor",
      "outputs": [
        {
          "internalType": "bytes32",
          "name": "merkleRoot",
          "type": "bytes32"
        },
        {
          "internalType": "uint64",
          "name": "anchoredAt",
          "type": "uint64"
        }
      ],
      "stateMutability": "view",
      "type": "function"
    },
    {
      "inputs": [
        {
          "internalType": "bytes32",
          "name": "consentRef",
          "type": "bytes32"
        }
      ],
      "name": "getConsentProof",
      "outputs": [
        {
          "components": [
            {
              "internalType": "bytes32",
              "name": "patientRef",
              "type": "bytes32"
            },
            {
              "internalType": "bytes32",
              "name": "granteeRef",
              "type": "bytes32"
            },
            {
              "internalType": "bytes32",
              "name": "scopeHash",
              "type": "bytes32"
            },
            {
              "internalType": "bytes32",
              "name": "periodRef",
              "type": "bytes32"
            },
            {
              "internalType": "bytes32",
              "name": "revocationHash",
              "type": "bytes32"
            },
            {
              "internalType": "uint64",
              "name": "grantedAt",
              "type": "uint64"
            },
            {
              "internalType": "uint64",
              "name": "revokedAt",
              "type": "uint64"
            },
            {
              "internalType": "bool",
              "name": "active",
              "type": "bool"
            }
          ],
          "internalType": "struct MediFlowIntegrity.ConsentProof",
          "name": "",
          "type": "tuple"
        }
      ],
      "stateMutability": "view",
      "type": "function"
    },
    {
      "inputs": [
        {
          "internalType": "bytes32",
          "name": "recordRef",
          "type": "bytes32"
        }
      ],
      "name": "getRecordProof",
      "outputs": [
        {
          "internalType": "bytes32",
          "name": "contentHash",
          "type": "bytes32"
        },
        {
          "internalType": "uint64",
          "name": "registeredAt",
          "type": "uint64"
        }
      ],
      "stateMutability": "view",
      "type": "function"
    },
    {
      "inputs": [
        {
          "internalType": "bytes32",
          "name": "consentRef",
          "type": "bytes32"
        },
        {
          "internalType": "bytes32",
          "name": "patientRef",
          "type": "bytes32"
        },
        {
          "internalType": "bytes32",
          "name": "granteeRef",
          "type": "bytes32"
        },
        {
          "internalType": "bytes32",
          "name": "scopeHash",
          "type": "bytes32"
        },
        {
          "internalType": "bytes32",
          "name": "periodRef",
          "type": "bytes32"
        }
      ],
      "name": "grantConsent",
      "outputs": [],
      "stateMutability": "nonpayable",
      "type": "function"
    },
    {
      "inputs": [],
      "name": "owner",
      "outputs": [
        {
          "internalType": "address",
          "name": "",
          "type": "address"
        }
      ],
      "stateMutability": "view",
      "type": "function"
    },
    {
      "inputs": [
        {
          "internalType": "bytes32",
          "name": "recordRef",
          "type": "bytes32"
        },
        {
          "internalType": "bytes32",
          "name": "contentHash",
          "type": "bytes32"
        }
      ],
      "name": "registerRecord",
      "outputs": [],
      "stateMutability": "nonpayable",
      "type": "function"
    },
    {
      "inputs": [
        {
          "internalType": "bytes32",
          "name": "consentRef",
          "type": "bytes32"
        },
        {
          "internalType": "bytes32",
          "name": "revocationHash",
          "type": "bytes32"
        }
      ],
      "name": "revokeConsent",
      "outputs": [],
      "stateMutability": "nonpayable",
      "type": "function"
    },
    {
      "inputs": [
        {
          "internalType": "bytes32",
          "name": "recordRef",
          "type": "bytes32"
        },
        {
          "internalType": "bytes32",
          "name": "contentHash",
          "type": "bytes32"
        }
      ],
      "name": "verifyRecord",
      "outputs": [
        {
          "internalType": "bool",
          "name": "",
          "type": "bool"
        }
      ],
      "stateMutability": "view",
      "type": "function"
    }
  ],
  "bytecode": "0x60a0604052348015600f57600080fd5b5033608052608051610a1f61004b600039600081816101050152818161034501528181610585015281816106b9015261080f0152610a1f6000f3fe608060405234801561001057600080fd5b50600436106100935760003560e01c8063cc99a56811610066578063cc99a56814610198578063df9c8463146102de578063ee39e6c6146102f1578063f33aede314610304578063f838585f1461031757600080fd5b80634bb0a90b146100985780638da5cb5b14610100578063a9a311021461013f578063c77a8cf414610183575b600080fd5b6100de6100a6366004610973565b600090815260026020908152604091829020825180840190935280548084526001909101546001600160401b03169290910182905291565b604080519283526001600160401b039091166020830152015b60405180910390f35b6101277f000000000000000000000000000000000000000000000000000000000000000081565b6040516001600160a01b0390911681526020016100f7565b6100de61014d366004610973565b60009081526020818152604091829020825180840190935280548084526001909101546001600160401b03169290910182905291565b61019661019136600461098c565b61033a565b005b6102696101a6366004610973565b6040805161010081018252600080825260208201819052918101829052606081018290526080810182905260a0810182905260c0810182905260e08101919091525060009081526001602081815260409283902083516101008101855281548152928101549183019190915260028101549282019290925260038201546060820152600482015460808201526005909101546001600160401b0380821660a0840152600160401b82041660c0830152600160801b900460ff16151560e082015290565b6040516100f7919060006101008201905082518252602083015160208301526040830151604083015260608301516060830152608083015160808301526001600160401b0360a08401511660a08301526001600160401b0360c08401511660c083015260e0830151151560e083015292915050565b6101966102ec3660046109c7565b61057a565b6101966102ff3660046109c7565b6106ae565b6101966103123660046109c7565b610804565b61032a6103253660046109c7565b61092e565b60405190151581526020016100f7565b336001600160a01b037f00000000000000000000000000000000000000000000000000000000000000001614610383576040516330cd747160e01b815260040160405180910390fd5b84158061038e575083155b80610397575082155b806103a0575081155b806103a9575080155b156103c757604051637c946ed760e01b815260040160405180910390fd5b6000858152600160205260409020600501546001600160401b03161561040057604051630ea075bf60e21b815260040160405180910390fd5b60004290506040518061010001604052808681526020018581526020018481526020018381526020016000801b8152602001826001600160401b0316815260200160006001600160401b031681526020016001151581525060016000888152602001908152602001600020600082015181600001556020820151816001015560408201518160020155606082015181600301556080820151816004015560a08201518160050160006101000a8154816001600160401b0302191690836001600160401b0316021790555060c08201518160050160086101000a8154816001600160401b0302191690836001600160401b0316021790555060e08201518160050160106101000a81548160ff0219169083151502179055509050508385877fff069af223a24a6dc644a23ecd74a83355e50b44d8505bcb7bfd32eb79bd626e86868660405161056a9392919092835260208301919091526001600160401b0316604082015260600190565b60405180910390a4505050505050565b336001600160a01b037f000000000000000000000000000000000000000000000000000000000000000016146105c3576040516330cd747160e01b815260040160405180910390fd5b8115806105ce575080155b156105ec57604051637c946ed760e01b815260040160405180910390fd5b6000828152600260205260409020600101546001600160401b03161561062557604051630ea075bf60e21b815260040160405180910390fd5b604080518082018252828152426001600160401b03818116602080850182815260008981526002835287902095518655516001909501805467ffffffffffffffff19169590931694909417909155925192835291839185917f66303215dd2e9560ab6cebf24c09a3c7b909f26480976ac8b404786e82b8a10491015b60405180910390a3505050565b336001600160a01b037f000000000000000000000000000000000000000000000000000000000000000016146106f7576040516330cd747160e01b815260040160405180910390fd5b811580610702575080155b1561072057604051637c946ed760e01b815260040160405180910390fd5b6000828152600160205260408120600581015490916001600160401b03909116900361075f57604051639196334960e01b815260040160405180910390fd5b6005810154600160801b900460ff1661078b576040516361c6fd0560e11b815260040160405180910390fd5b6005810180546004830184905570ffffffffffffffffff00000000000000001916600160401b426001600160401b0381169182029290921790925560405191825290839085907fa1e10fa0fa4e5924f7ea1e355b2ab18896487a9cc83dec3138038ef6e1cfeb969060200160405180910390a350505050565b336001600160a01b037f0000000000000000000000000000000000000000000000000000000000000000161461084d576040516330cd747160e01b815260040160405180910390fd5b811580610858575080155b1561087657604051637c946ed760e01b815260040160405180910390fd5b6000828152602081905260409020600101546001600160401b0316156108af57604051630ea075bf60e21b815260040160405180910390fd5b604080518082018252828152426001600160401b038181166020808501828152600089815280835287902095518655516001909501805467ffffffffffffffff19169590931694909417909155925192835291839185917fd183e48dc8e2661ae41d634547542adfb33bf5f407e3e75b2eaf3c00628da72e91016106a1565b600082815260208181526040808320815180830190925280548252600101546001600160401b0316918101829052901580159061096b5750805183145b949350505050565b60006020828403121561098557600080fd5b5035919050565b600080600080600060a086880312156109a457600080fd5b505083359560208501359550604085013594606081013594506080013592509050565b600080604083850312156109da57600080fd5b5050803592602090910135915056fea26469706673582212201cb56101c7a110aa4dc243e1b9b259159741f2e222c11ca86fd423d42af90d8f64736f6c634300081c0033",
  "linkReferences": {},
  "deployedLinkReferences": {}
}